{
  "contractName": "Articles",
  "abi": [
    {
      "constant": true,
      "inputs": [],
      "name": "articlesCount",
      "outputs": [
        {
          "name": "",
          "type": "uint256"
        }
      ],
      "payable": false,
      "stateMutability": "view",
      "type": "function"
    },
    {
      "constant": true,
      "inputs": [
        {
          "name": "",
          "type": "uint256"
        }
      ],
      "name": "articles",
      "outputs": [
        {
          "name": "id",
          "type": "uint256"
        },
        {
          "name": "authorAdd",
          "type": "address"
        },
        {
          "name": "authorName",
          "type": "string"
        },
        {
          "name": "articleTitle",
          "type": "string"
        },
        {
          "name": "articleContent",
          "type": "string"
        },
        {
          "name": "dateCreated",
          "type": "string"
        }
      ],
      "payable": false,
      "stateMutability": "view",
      "type": "function"
    },
    {
      "inputs": [],
      "payable": false,
      "stateMutability": "nonpayable",
      "type": "constructor"
    }
  ],
  "bytecode": "0x608060405234801561001057600080fd5b50336000806101000a81548173ffffffffffffffffffffffffffffffffffffffff021916908373ffffffffffffffffffffffffffffffffffffffff16021790555061005f61006460201b60201c565b61039d565b60036000815480929190600101919050555061007e6102ac565b6040518060c0016040528060035481526020013373ffffffffffffffffffffffffffffffffffffffff1681526020016040518060400160405280600381526020017f4f6e65000000000000000000000000000000000000000000000000000000000081525081526020016040518060400160405280601081526020017f2e2e2e576861742773206e657874203f0000000000000000000000000000000081525081526020016040518060a00160405280607b8152602001610918607b913981526020016040518060400160405280601081526020017f496e207468652062656767696e696e67000000000000000000000000000000008152508152509050806001600060035481526020019081526020016000206000820151816000015560208201518160010160006101000a81548173ffffffffffffffffffffffffffffffffffffffff021916908373ffffffffffffffffffffffffffffffffffffffff16021790555060408201518160020190805190602001906101ff9291906102f8565b50606082015181600301908051906020019061021c9291906102f8565b5060808201518160040190805190602001906102399291906102f8565b5060a08201518160050190805190602001906102569291906102f8565b50905050600260003373ffffffffffffffffffffffffffffffffffffffff1673ffffffffffffffffffffffffffffffffffffffff1681526020019081526020016000206000815480929190600101919050555050565b6040518060c0016040528060008152602001600073ffffffffffffffffffffffffffffffffffffffff168152602001606081526020016060815260200160608152602001606081525090565b828054600181600116156101000203166002900490600052602060002090601f016020900481019282601f1061033957805160ff1916838001178555610367565b82800160010185558215610367579182015b8281111561036657825182559160200191906001019061034b565b5b5090506103749190610378565b5090565b61039a91905b8082111561039657600081600090555060010161037e565b5090565b90565b61056c806103ac6000396000f3fe608060405234801561001057600080fd5b50600436106100365760003560e01c8063bb396f3c1461003b578063edcfafe614610059575b600080fd5b61004361027e565b6040518082815260200191505060405180910390f35b6100856004803603602081101561006f57600080fd5b8101908080359060200190929190505050610284565b604051808781526020018673ffffffffffffffffffffffffffffffffffffffff1673ffffffffffffffffffffffffffffffffffffffff16815260200180602001806020018060200180602001858103855289818151815260200191508051906020019080838360005b838110156101095780820151818401526020810190506100ee565b50505050905090810190601f1680156101365780820380516001836020036101000a031916815260200191505b50858103845288818151815260200191508051906020019080838360005b8381101561016f578082015181840152602081019050610154565b50505050905090810190601f16801561019c5780820380516001836020036101000a031916815260200191505b50858103835287818151815260200191508051906020019080838360005b838110156101d55780820151818401526020810190506101ba565b50505050905090810190601f1680156102025780820380516001836020036101000a031916815260200191505b50858103825286818151815260200191508051906020019080838360005b8381101561023b578082015181840152602081019050610220565b50505050905090810190601f1680156102685780820380516001836020036101000a031916815260200191505b509a505050505050505050505060405180910390f35b60035481565b60016020528060005260406000206000915090508060000154908060010160009054906101000a900473ffffffffffffffffffffffffffffffffffffffff1690806002018054600181600116156101000203166002900480601f01602080910402602001604051908101604052809291908181526020018280546001816001161561010002031660029004801561035c5780601f106103315761010080835404028352916020019161035c565b820191906000526020600020905b81548152906001019060200180831161033f57829003601f168201915b505050505090806003018054600181600116156101000203166002900480601f0160208091040260200160405190810160405280929190818152602001828054600181600116156101000203166002900480156103fa5780601f106103cf576101008083540402835291602001916103fa565b820191906000526020600020905b8154815290600101906020018083116103dd57829003601f168201915b505050505090806004018054600181600116156101000203166002900480601f0160208091040260200160405190810160405280929190818152602001828054600181600116156101000203166002900480156104985780601f1061046d57610100808354040283529160200191610498565b820191906000526020600020905b81548152906001019060200180831161047b57829003601f168201915b505050505090806005018054600181600116156101000203166002900480601f0160208091040260200160405190810160405280929190818152602001828054600181600116156101000203166002900480156105365780601f1061050b57610100808354040283529160200191610536565b820191906000526020600020905b81548152906001019060200180831161051957829003601f168201915b505050505090508656fea165627a7a72305820c8cb789a36b668431944c5ed35e450a78f4ab54733a223d2450ebadd7ef07e7b00292e2e2e666f726d696e672061207265636f726420746861742063616e6e6f74206265206368616e67656420776974686f7574207265646f696e67207468652070726f6f662d6f662d776f726b2e20546865206c6f6e6765737420636861696e206e6f74206f6e6c79207365727665732061732070726f6f662e2e2e",
  "source": "pragma solidity >=0.4.21 <0.7.0;\n\ncontract Articles {\n    // Save the owner address\n    address admin;\n\n    // Create struct for articles\n    struct Article {\n        uint id;\n        address authorAdd;\n        string authorName;\n        string articleTitle;\n        string articleContent;\n        string dateCreated;\n    }\n\n    // Create mapping for articles\n    mapping( uint => Article ) public articles;\n    // Create mapping for authors and article count\n    mapping( address => uint) authorArticleCount;\n    // Variable to keep count of articles\n    uint public articlesCount;\n\n    // Constructor\n    constructor() public {\n        // The constructor calls private function to create genesis article\n        // Also saves the admin address\n        admin = msg.sender;\n        _createGenesisArticle();\n    }\n\n    // Private function to create genesis article\n    function _createGenesisArticle() private {\n        articlesCount++;\n        Article memory genesis = Article(\n            articlesCount,\n            msg.sender,\n            \"One\",\n            \"...What's next ?\",\n            \"...forming a record that cannot be changed without redoing the proof-of-work. The longest chain not only serves as proof...\",\n            \"In the beggining\"\n        );\n\n        // Add the genesis article to mapping\n        articles[articlesCount] = genesis;\n\n        // Add count of articles for address\n        authorArticleCount[msg.sender]++;\n    }\n}",
  "sourcePath": "/home/kabiru/Desktop/Code/Ethereum/trueKenyan-project/trueKenyan/contracts/Articles.sol",
  "compiler": {
    "name": "solc",
    "version": "0.5.8+commit.23d335f2.Emscripten.clang"
  },
  "schemaVersion": "3.0.16",
  "updatedAt": "2020-01-28T12:31:02.085Z",
  "devdoc": {
    "methods": {}
  },
  "userdoc": {
    "methods": {}
  }
}