{
  "contractName": "Articles",
  "abi": [
    {
      "constant": true,
      "inputs": [],
      "name": "articlesCount",
      "outputs": [
        {
          "name": "",
          "type": "uint256"
        }
      ],
      "payable": false,
      "stateMutability": "view",
      "type": "function"
    },
    {
      "constant": true,
      "inputs": [
        {
          "name": "",
          "type": "uint256"
        }
      ],
      "name": "articles",
      "outputs": [
        {
          "name": "id",
          "type": "uint256"
        },
        {
          "name": "authorAdd",
          "type": "address"
        },
        {
          "name": "authorName",
          "type": "string"
        },
        {
          "name": "articleTitle",
          "type": "string"
        },
        {
          "name": "articleContent",
          "type": "string"
        },
        {
          "name": "dateCreated",
          "type": "string"
        }
      ],
      "payable": false,
      "stateMutability": "view",
      "type": "function"
    },
    {
      "inputs": [],
      "payable": false,
      "stateMutability": "nonpayable",
      "type": "constructor"
    },
    {
      "anonymous": false,
      "inputs": [
        {
          "indexed": false,
          "name": "id",
          "type": "uint256"
        },
        {
          "indexed": false,
          "name": "author",
          "type": "address"
        },
        {
          "indexed": false,
          "name": "name",
          "type": "string"
        },
        {
          "indexed": false,
          "name": "title",
          "type": "string"
        },
        {
          "indexed": false,
          "name": "content",
          "type": "string"
        },
        {
          "indexed": false,
          "name": "timestamp",
          "type": "string"
        }
      ],
      "name": "articleCreated",
      "type": "event"
    },
    {
      "constant": false,
      "inputs": [
        {
          "name": "_author",
          "type": "string"
        },
        {
          "name": "_title",
          "type": "string"
        },
        {
          "name": "_content",
          "type": "string"
        },
        {
          "name": "_timestamp",
          "type": "string"
        }
      ],
      "name": "createArticle",
      "outputs": [],
      "payable": false,
      "stateMutability": "nonpayable",
      "type": "function"
    }
  ],
  "bytecode": "0x60806040523480156200001157600080fd5b50336000806101000a81548173ffffffffffffffffffffffffffffffffffffffff021916908373ffffffffffffffffffffffffffffffffffffffff160217905550620000626200006860201b60201c565b620005f9565b60036000815480929190600101919050555062000084620004fe565b6040518060c0016040528060035481526020013373ffffffffffffffffffffffffffffffffffffffff1681526020016040518060400160405280600381526020017f4f6e65000000000000000000000000000000000000000000000000000000000081525081526020016040518060400160405280601081526020017f2e2e2e576861742773206e657874203f0000000000000000000000000000000081525081526020016040518060a00160405280607b8152602001620012bd607b913981526020016040518060400160405280601081526020017f496e207468652062656767696e696e67000000000000000000000000000000008152508152509050806001600060035481526020019081526020016000206000820151816000015560208201518160010160006101000a81548173ffffffffffffffffffffffffffffffffffffffff021916908373ffffffffffffffffffffffffffffffffffffffff1602179055506040820151816002019080519060200190620002089291906200054a565b506060820151816003019080519060200190620002279291906200054a565b506080820151816004019080519060200190620002469291906200054a565b5060a0820151816005019080519060200190620002659291906200054a565b50905050600260003373ffffffffffffffffffffffffffffffffffffffff1673ffffffffffffffffffffffffffffffffffffffff168152602001908152602001600020600081548092919060010191905055507f3d5e8c9bf32c4d0e13c7bdf66ca4a8cf410b5beb4a263c1130f00dbe35bdd5d7816000015182602001518360400151846060015185608001518660a00151604051808781526020018673ffffffffffffffffffffffffffffffffffffffff1673ffffffffffffffffffffffffffffffffffffffff16815260200180602001806020018060200180602001858103855289818151815260200191508051906020019080838360005b838110156200037d57808201518184015260208101905062000360565b50505050905090810190601f168015620003ab5780820380516001836020036101000a031916815260200191505b50858103845288818151815260200191508051906020019080838360005b83811015620003e6578082015181840152602081019050620003c9565b50505050905090810190601f168015620004145780820380516001836020036101000a031916815260200191505b50858103835287818151815260200191508051906020019080838360005b838110156200044f57808201518184015260208101905062000432565b50505050905090810190601f1680156200047d5780820380516001836020036101000a031916815260200191505b50858103825286818151815260200191508051906020019080838360005b83811015620004b85780820151818401526020810190506200049b565b50505050905090810190601f168015620004e65780820380516001836020036101000a031916815260200191505b509a505050505050505050505060405180910390a150565b6040518060c0016040528060008152602001600073ffffffffffffffffffffffffffffffffffffffff168152602001606081526020016060815260200160608152602001606081525090565b828054600181600116156101000203166002900490600052602060002090601f016020900481019282601f106200058d57805160ff1916838001178555620005be565b82800160010185558215620005be579182015b82811115620005bd578251825591602001919060010190620005a0565b5b509050620005cd9190620005d1565b5090565b620005f691905b80821115620005f2576000816000905550600101620005d8565b5090565b90565b610cb480620006096000396000f3fe608060405234801561001057600080fd5b50600436106100415760003560e01c8063a01c406d14610046578063bb396f3c146102c6578063edcfafe6146102e4575b600080fd5b6102c46004803603608081101561005c57600080fd5b810190808035906020019064010000000081111561007957600080fd5b82018360208201111561008b57600080fd5b803590602001918460018302840111640100000000831117156100ad57600080fd5b91908080601f016020809104026020016040519081016040528093929190818152602001838380828437600081840152601f19601f8201169050808301925050505050505091929192908035906020019064010000000081111561011057600080fd5b82018360208201111561012257600080fd5b8035906020019184600183028401116401000000008311171561014457600080fd5b91908080601f016020809104026020016040519081016040528093929190818152602001838380828437600081840152601f19601f820116905080830192505050505050509192919290803590602001906401000000008111156101a757600080fd5b8201836020820111156101b957600080fd5b803590602001918460018302840111640100000000831117156101db57600080fd5b91908080601f016020809104026020016040519081016040528093929190818152602001838380828437600081840152601f19601f8201169050808301925050505050505091929192908035906020019064010000000081111561023e57600080fd5b82018360208201111561025057600080fd5b8035906020019184600183028401116401000000008311171561027257600080fd5b91908080601f016020809104026020016040519081016040528093929190818152602001838380828437600081840152601f19601f820116905080830192505050505050509192919290505050610509565b005b6102ce6108d5565b6040518082815260200191505060405180910390f35b610310600480360360208110156102fa57600080fd5b81019080803590602001909291905050506108db565b604051808781526020018673ffffffffffffffffffffffffffffffffffffffff1673ffffffffffffffffffffffffffffffffffffffff16815260200180602001806020018060200180602001858103855289818151815260200191508051906020019080838360005b83811015610394578082015181840152602081019050610379565b50505050905090810190601f1680156103c15780820380516001836020036101000a031916815260200191505b50858103845288818151815260200191508051906020019080838360005b838110156103fa5780820151818401526020810190506103df565b50505050905090810190601f1680156104275780820380516001836020036101000a031916815260200191505b50858103835287818151815260200191508051906020019080838360005b83811015610460578082015181840152602081019050610445565b50505050905090810190601f16801561048d5780820380516001836020036101000a031916815260200191505b50858103825286818151815260200191508051906020019080838360005b838110156104c65780820151818401526020810190506104ab565b50505050905090810190601f1680156104f35780820380516001836020036101000a031916815260200191505b509a505050505050505050505060405180910390f35b600360008154809291906001019190505550610523610b97565b6040518060c0016040528060035481526020013373ffffffffffffffffffffffffffffffffffffffff168152602001868152602001858152602001848152602001838152509050806001600060035481526020019081526020016000206000820151816000015560208201518160010160006101000a81548173ffffffffffffffffffffffffffffffffffffffff021916908373ffffffffffffffffffffffffffffffffffffffff16021790555060408201518160020190805190602001906105ed929190610be3565b50606082015181600301908051906020019061060a929190610be3565b506080820151816004019080519060200190610627929190610be3565b5060a0820151816005019080519060200190610644929190610be3565b50905050600260003373ffffffffffffffffffffffffffffffffffffffff1673ffffffffffffffffffffffffffffffffffffffff168152602001908152602001600020600081548092919060010191905055507f3d5e8c9bf32c4d0e13c7bdf66ca4a8cf410b5beb4a263c1130f00dbe35bdd5d7816000015182602001518360400151846060015185608001518660a00151604051808781526020018673ffffffffffffffffffffffffffffffffffffffff1673ffffffffffffffffffffffffffffffffffffffff16815260200180602001806020018060200180602001858103855289818151815260200191508051906020019080838360005b8381101561075a57808201518184015260208101905061073f565b50505050905090810190601f1680156107875780820380516001836020036101000a031916815260200191505b50858103845288818151815260200191508051906020019080838360005b838110156107c05780820151818401526020810190506107a5565b50505050905090810190601f1680156107ed5780820380516001836020036101000a031916815260200191505b50858103835287818151815260200191508051906020019080838360005b8381101561082657808201518184015260208101905061080b565b50505050905090810190601f1680156108535780820380516001836020036101000a031916815260200191505b50858103825286818151815260200191508051906020019080838360005b8381101561088c578082015181840152602081019050610871565b50505050905090810190601f1680156108b95780820380516001836020036101000a031916815260200191505b509a505050505050505050505060405180910390a15050505050565b60035481565b60016020528060005260406000206000915090508060000154908060010160009054906101000a900473ffffffffffffffffffffffffffffffffffffffff1690806002018054600181600116156101000203166002900480601f0160208091040260200160405190810160405280929190818152602001828054600181600116156101000203166002900480156109b35780601f10610988576101008083540402835291602001916109b3565b820191906000526020600020905b81548152906001019060200180831161099657829003601f168201915b505050505090806003018054600181600116156101000203166002900480601f016020809104026020016040519081016040528092919081815260200182805460018160011615610100020316600290048015610a515780601f10610a2657610100808354040283529160200191610a51565b820191906000526020600020905b815481529060010190602001808311610a3457829003601f168201915b505050505090806004018054600181600116156101000203166002900480601f016020809104026020016040519081016040528092919081815260200182805460018160011615610100020316600290048015610aef5780601f10610ac457610100808354040283529160200191610aef565b820191906000526020600020905b815481529060010190602001808311610ad257829003601f168201915b505050505090806005018054600181600116156101000203166002900480601f016020809104026020016040519081016040528092919081815260200182805460018160011615610100020316600290048015610b8d5780601f10610b6257610100808354040283529160200191610b8d565b820191906000526020600020905b815481529060010190602001808311610b7057829003601f168201915b5050505050905086565b6040518060c0016040528060008152602001600073ffffffffffffffffffffffffffffffffffffffff168152602001606081526020016060815260200160608152602001606081525090565b828054600181600116156101000203166002900490600052602060002090601f016020900481019282601f10610c2457805160ff1916838001178555610c52565b82800160010185558215610c52579182015b82811115610c51578251825591602001919060010190610c36565b5b509050610c5f9190610c63565b5090565b610c8591905b80821115610c81576000816000905550600101610c69565b5090565b9056fea165627a7a72305820d21483d1d383c9a46aa5e28c3b1dbc16fd7abb03b128b99a48387f04f5815ee800292e2e2e666f726d696e672061207265636f726420746861742063616e6e6f74206265206368616e67656420776974686f7574207265646f696e67207468652070726f6f662d6f662d776f726b2e20546865206c6f6e6765737420636861696e206e6f74206f6e6c79207365727665732061732070726f6f662e2e2e",
  "source": "pragma solidity >=0.4.21 <0.7.0;\n\ncontract Articles {\n    // Save the owner address\n    address admin;\n\n    // Create struct for articles\n    struct Article {\n        uint id;\n        address authorAdd;\n        string authorName;\n        string articleTitle;\n        string articleContent;\n        string dateCreated;\n    }\n\n    // Create mapping for articles\n    mapping( uint => Article ) public articles;\n    // Create mapping for authors and article count\n    mapping( address => uint) authorArticleCount;\n    // Variable to keep count of articles\n    uint public articlesCount;\n\n    // Event for article creation\n    event articleCreated(uint id, address author, string name, string title, string content, string timestamp );\n\n    // Constructor\n    constructor() public {\n        // The constructor calls private function to create genesis article\n        // Also saves the admin address\n        admin = msg.sender;\n        _createGenesisArticle();\n    }\n\n    // Private function to create genesis article\n    function _createGenesisArticle() private {\n        articlesCount++;\n        Article memory genesis = Article(\n            articlesCount,\n            msg.sender,\n            \"One\",\n            \"...What's next ?\",\n            \"...forming a record that cannot be changed without redoing the proof-of-work. The longest chain not only serves as proof...\",\n            \"In the beggining\"\n        );\n\n        // Add the genesis article to mapping\n        articles[articlesCount] = genesis;\n\n        // Add count of articles for address\n        authorArticleCount[msg.sender]++;\n\n        // Emit event\n        emit articleCreated(\n            genesis.id,\n            genesis.authorAdd,\n            genesis.authorName,\n            genesis.articleTitle,\n            genesis.articleContent,\n            genesis.dateCreated\n        );\n    }\n\n    // Public function to add article\n    function createArticle(string memory _author, string memory _title, string memory _content, string memory _timestamp) public {\n        articlesCount++;\n        Article memory new_article = Article(\n            articlesCount,\n            msg.sender,\n            _author,\n            _title,\n            _content,\n            _timestamp\n        );\n\n        // Add the article to mapping\n        articles[articlesCount] = new_article;\n\n        // Add count of articles to address\n        authorArticleCount[msg.sender]++;\n\n        // Emit event\n        emit articleCreated(\n            new_article.id,\n            new_article.authorAdd,\n            new_article.authorName,\n            new_article.articleTitle,\n            new_article.articleContent,\n            new_article.dateCreated\n        );\n    }\n}",
  "sourcePath": "/home/kabiru/Desktop/Code/Ethereum/trueKenyan-project/trueKenyan/contracts/Articles.sol",
  "compiler": {
    "name": "solc",
    "version": "0.5.8+commit.23d335f2.Emscripten.clang"
  },
  "schemaVersion": "3.0.16",
  "updatedAt": "2020-01-28T18:03:29.344Z",
  "devdoc": {
    "methods": {}
  },
  "userdoc": {
    "methods": {}
  }
}